{
  "_format": "hh3-artifact-1",
  "contractName": "NaranjaXBrandNFT",
  "sourceName": "contracts/NaranjaXBrandNFT.sol",
  "abi": [
    {
      "inputs": [],
      "stateMutability": "nonpayable",
      "type": "constructor"
    },
    {
      "inputs": [
        {
          "internalType": "address",
          "name": "sender",
          "type": "address"
        },
        {
          "internalType": "uint256",
          "name": "tokenId",
          "type": "uint256"
        },
        {
          "internalType": "address",
          "name": "owner",
          "type": "address"
        }
      ],
      "name": "ERC721IncorrectOwner",
      "type": "error"
    },
    {
      "inputs": [
        {
          "internalType": "address",
          "name": "operator",
          "type": "address"
        },
        {
          "internalType": "uint256",
          "name": "tokenId",
          "type": "uint256"
        }
      ],
      "name": "ERC721InsufficientApproval",
      "type": "error"
    },
    {
      "inputs": [
        {
          "internalType": "address",
          "name": "approver",
          "type": "address"
        }
      ],
      "name": "ERC721InvalidApprover",
      "type": "error"
    },
    {
      "inputs": [
        {
          "internalType": "address",
          "name": "operator",
          "type": "address"
        }
      ],
      "name": "ERC721InvalidOperator",
      "type": "error"
    },
    {
      "inputs": [
        {
          "internalType": "address",
          "name": "owner",
          "type": "address"
        }
      ],
      "name": "ERC721InvalidOwner",
      "type": "error"
    },
    {
      "inputs": [
        {
          "internalType": "address",
          "name": "receiver",
          "type": "address"
        }
      ],
      "name": "ERC721InvalidReceiver",
      "type": "error"
    },
    {
      "inputs": [
        {
          "internalType": "address",
          "name": "sender",
          "type": "address"
        }
      ],
      "name": "ERC721InvalidSender",
      "type": "error"
    },
    {
      "inputs": [
        {
          "internalType": "uint256",
          "name": "tokenId",
          "type": "uint256"
        }
      ],
      "name": "ERC721NonexistentToken",
      "type": "error"
    },
    {
      "inputs": [
        {
          "internalType": "address",
          "name": "owner",
          "type": "address"
        }
      ],
      "name": "OwnableInvalidOwner",
      "type": "error"
    },
    {
      "inputs": [
        {
          "internalType": "address",
          "name": "account",
          "type": "address"
        }
      ],
      "name": "OwnableUnauthorizedAccount",
      "type": "error"
    },
    {
      "anonymous": false,
      "inputs": [
        {
          "indexed": true,
          "internalType": "address",
          "name": "owner",
          "type": "address"
        },
        {
          "indexed": true,
          "internalType": "address",
          "name": "approved",
          "type": "address"
        },
        {
          "indexed": true,
          "internalType": "uint256",
          "name": "tokenId",
          "type": "uint256"
        }
      ],
      "name": "Approval",
      "type": "event"
    },
    {
      "anonymous": false,
      "inputs": [
        {
          "indexed": true,
          "internalType": "address",
          "name": "owner",
          "type": "address"
        },
        {
          "indexed": true,
          "internalType": "address",
          "name": "operator",
          "type": "address"
        },
        {
          "indexed": false,
          "internalType": "bool",
          "name": "approved",
          "type": "bool"
        }
      ],
      "name": "ApprovalForAll",
      "type": "event"
    },
    {
      "anonymous": false,
      "inputs": [
        {
          "indexed": false,
          "internalType": "uint256",
          "name": "_fromTokenId",
          "type": "uint256"
        },
        {
          "indexed": false,
          "internalType": "uint256",
          "name": "_toTokenId",
          "type": "uint256"
        }
      ],
      "name": "BatchMetadataUpdate",
      "type": "event"
    },
    {
      "anonymous": false,
      "inputs": [
        {
          "indexed": false,
          "internalType": "uint256",
          "name": "_tokenId",
          "type": "uint256"
        }
      ],
      "name": "MetadataUpdate",
      "type": "event"
    },
    {
      "anonymous": false,
      "inputs": [
        {
          "indexed": true,
          "internalType": "address",
          "name": "minter",
          "type": "address"
        },
        {
          "indexed": false,
          "internalType": "bool",
          "name": "status",
          "type": "bool"
        }
      ],
      "name": "MinterStatusChanged",
      "type": "event"
    },
    {
      "anonymous": false,
      "inputs": [
        {
          "indexed": true,
          "internalType": "address",
          "name": "to",
          "type": "address"
        },
        {
          "indexed": true,
          "internalType": "uint256",
          "name": "tokenId",
          "type": "uint256"
        },
        {
          "indexed": false,
          "internalType": "string",
          "name": "uri",
          "type": "string"
        }
      ],
      "name": "NFTMinted",
      "type": "event"
    },
    {
      "anonymous": false,
      "inputs": [
        {
          "indexed": true,
          "internalType": "address",
          "name": "previousOwner",
          "type": "address"
        },
        {
          "indexed": true,
          "internalType": "address",
          "name": "newOwner",
          "type": "address"
        }
      ],
      "name": "OwnershipTransferred",
      "type": "event"
    },
    {
      "anonymous": false,
      "inputs": [
        {
          "indexed": true,
          "internalType": "address",
          "name": "from",
          "type": "address"
        },
        {
          "indexed": true,
          "internalType": "address",
          "name": "to",
          "type": "address"
        },
        {
          "indexed": true,
          "internalType": "uint256",
          "name": "tokenId",
          "type": "uint256"
        }
      ],
      "name": "Transfer",
      "type": "event"
    },
    {
      "inputs": [
        {
          "internalType": "address",
          "name": "to",
          "type": "address"
        },
        {
          "internalType": "uint256",
          "name": "tokenId",
          "type": "uint256"
        }
      ],
      "name": "approve",
      "outputs": [],
      "stateMutability": "nonpayable",
      "type": "function"
    },
    {
      "inputs": [
        {
          "internalType": "address",
          "name": "",
          "type": "address"
        }
      ],
      "name": "authorizedMinters",
      "outputs": [
        {
          "internalType": "bool",
          "name": "",
          "type": "bool"
        }
      ],
      "stateMutability": "view",
      "type": "function"
    },
    {
      "inputs": [
        {
          "internalType": "address",
          "name": "owner",
          "type": "address"
        }
      ],
      "name": "balanceOf",
      "outputs": [
        {
          "internalType": "uint256",
          "name": "",
          "type": "uint256"
        }
      ],
      "stateMutability": "view",
      "type": "function"
    },
    {
      "inputs": [
        {
          "internalType": "uint256",
          "name": "tokenId",
          "type": "uint256"
        }
      ],
      "name": "getApproved",
      "outputs": [
        {
          "internalType": "address",
          "name": "",
          "type": "address"
        }
      ],
      "stateMutability": "view",
      "type": "function"
    },
    {
      "inputs": [
        {
          "internalType": "address",
          "name": "owner",
          "type": "address"
        },
        {
          "internalType": "address",
          "name": "operator",
          "type": "address"
        }
      ],
      "name": "isApprovedForAll",
      "outputs": [
        {
          "internalType": "bool",
          "name": "",
          "type": "bool"
        }
      ],
      "stateMutability": "view",
      "type": "function"
    },
    {
      "inputs": [
        {
          "internalType": "address",
          "name": "minter",
          "type": "address"
        }
      ],
      "name": "isAuthorizedMinter",
      "outputs": [
        {
          "internalType": "bool",
          "name": "",
          "type": "bool"
        }
      ],
      "stateMutability": "view",
      "type": "function"
    },
    {
      "inputs": [
        {
          "internalType": "address",
          "name": "to",
          "type": "address"
        },
        {
          "internalType": "string",
          "name": "uri",
          "type": "string"
        }
      ],
      "name": "mint",
      "outputs": [],
      "stateMutability": "nonpayable",
      "type": "function"
    },
    {
      "inputs": [],
      "name": "name",
      "outputs": [
        {
          "internalType": "string",
          "name": "",
          "type": "string"
        }
      ],
      "stateMutability": "view",
      "type": "function"
    },
    {
      "inputs": [],
      "name": "nextTokenId",
      "outputs": [
        {
          "internalType": "uint256",
          "name": "",
          "type": "uint256"
        }
      ],
      "stateMutability": "view",
      "type": "function"
    },
    {
      "inputs": [],
      "name": "owner",
      "outputs": [
        {
          "internalType": "address",
          "name": "",
          "type": "address"
        }
      ],
      "stateMutability": "view",
      "type": "function"
    },
    {
      "inputs": [
        {
          "internalType": "uint256",
          "name": "tokenId",
          "type": "uint256"
        }
      ],
      "name": "ownerOf",
      "outputs": [
        {
          "internalType": "address",
          "name": "",
          "type": "address"
        }
      ],
      "stateMutability": "view",
      "type": "function"
    },
    {
      "inputs": [],
      "name": "renounceOwnership",
      "outputs": [],
      "stateMutability": "nonpayable",
      "type": "function"
    },
    {
      "inputs": [
        {
          "internalType": "address",
          "name": "from",
          "type": "address"
        },
        {
          "internalType": "address",
          "name": "to",
          "type": "address"
        },
        {
          "internalType": "uint256",
          "name": "tokenId",
          "type": "uint256"
        }
      ],
      "name": "safeTransferFrom",
      "outputs": [],
      "stateMutability": "nonpayable",
      "type": "function"
    },
    {
      "inputs": [
        {
          "internalType": "address",
          "name": "from",
          "type": "address"
        },
        {
          "internalType": "address",
          "name": "to",
          "type": "address"
        },
        {
          "internalType": "uint256",
          "name": "tokenId",
          "type": "uint256"
        },
        {
          "internalType": "bytes",
          "name": "data",
          "type": "bytes"
        }
      ],
      "name": "safeTransferFrom",
      "outputs": [],
      "stateMutability": "nonpayable",
      "type": "function"
    },
    {
      "inputs": [
        {
          "internalType": "address",
          "name": "operator",
          "type": "address"
        },
        {
          "internalType": "bool",
          "name": "approved",
          "type": "bool"
        }
      ],
      "name": "setApprovalForAll",
      "outputs": [],
      "stateMutability": "nonpayable",
      "type": "function"
    },
    {
      "inputs": [
        {
          "internalType": "address",
          "name": "minter",
          "type": "address"
        },
        {
          "internalType": "bool",
          "name": "status",
          "type": "bool"
        }
      ],
      "name": "setMinter",
      "outputs": [],
      "stateMutability": "nonpayable",
      "type": "function"
    },
    {
      "inputs": [
        {
          "internalType": "bytes4",
          "name": "interfaceId",
          "type": "bytes4"
        }
      ],
      "name": "supportsInterface",
      "outputs": [
        {
          "internalType": "bool",
          "name": "",
          "type": "bool"
        }
      ],
      "stateMutability": "view",
      "type": "function"
    },
    {
      "inputs": [],
      "name": "symbol",
      "outputs": [
        {
          "internalType": "string",
          "name": "",
          "type": "string"
        }
      ],
      "stateMutability": "view",
      "type": "function"
    },
    {
      "inputs": [
        {
          "internalType": "uint256",
          "name": "tokenId",
          "type": "uint256"
        }
      ],
      "name": "tokenURI",
      "outputs": [
        {
          "internalType": "string",
          "name": "",
          "type": "string"
        }
      ],
      "stateMutability": "view",
      "type": "function"
    },
    {
      "inputs": [
        {
          "internalType": "address",
          "name": "from",
          "type": "address"
        },
        {
          "internalType": "address",
          "name": "to",
          "type": "address"
        },
        {
          "internalType": "uint256",
          "name": "tokenId",
          "type": "uint256"
        }
      ],
      "name": "transferFrom",
      "outputs": [],
      "stateMutability": "nonpayable",
      "type": "function"
    },
    {
      "inputs": [
        {
          "internalType": "address",
          "name": "newOwner",
          "type": "address"
        }
      ],
      "name": "transferOwnership",
      "outputs": [],
      "stateMutability": "nonpayable",
      "type": "function"
    }
  ],
  "bytecode": "0x608060405234801561000f575f5ffd5b50336040518060400160405280600881526020017f4272616e644e46540000000000000000000000000000000000000000000000008152506040518060400160405280600481526020017f42524e4400000000000000000000000000000000000000000000000000000000815250815f908161008b9190610423565b50806001908161009b9190610423565b5050505f73ffffffffffffffffffffffffffffffffffffffff168173ffffffffffffffffffffffffffffffffffffffff160361010e575f6040517f1e4fbdf70000000000000000000000000000000000000000000000000000000081526004016101059190610531565b60405180910390fd5b61011d8161012360201b60201c565b5061054a565b5f60075f9054906101000a900473ffffffffffffffffffffffffffffffffffffffff1690508160075f6101000a81548173ffffffffffffffffffffffffffffffffffffffff021916908373ffffffffffffffffffffffffffffffffffffffff1602179055508173ffffffffffffffffffffffffffffffffffffffff168173ffffffffffffffffffffffffffffffffffffffff167f8be0079c531659141344cd1fd0a4f28419497f9722a3daafe3b4186f6b6457e060405160405180910390a35050565b5f81519050919050565b7f4e487b71000000000000000000000000000000000000000000000000000000005f52604160045260245ffd5b7f4e487b71000000000000000000000000000000000000000000000000000000005f52602260045260245ffd5b5f600282049050600182168061026157607f821691505b6020821081036102745761027361021d565b5b50919050565b5f819050815f5260205f209050919050565b5f6020601f8301049050919050565b5f82821b905092915050565b5f600883026102d67fffffffffffffffffffffffffffffffffffffffffffffffffffffffffffffffff8261029b565b6102e0868361029b565b95508019841693508086168417925050509392505050565b5f819050919050565b5f819050919050565b5f61032461031f61031a846102f8565b610301565b6102f8565b9050919050565b5f819050919050565b61033d8361030a565b6103516103498261032b565b8484546102a7565b825550505050565b5f5f905090565b610368610359565b610373818484610334565b505050565b5b818110156103965761038b5f82610360565b600181019050610379565b5050565b601f8211156103db576103ac8161027a565b6103b58461028c565b810160208510156103c4578190505b6103d86103d08561028c565b830182610378565b50505b505050565b5f82821c905092915050565b5f6103fb5f19846008026103e0565b1980831691505092915050565b5f61041383836103ec565b9150826002028217905092915050565b61042c826101e6565b67ffffffffffffffff811115610445576104446101f0565b5b61044f825461024a565b61045a82828561039a565b5f60209050601f83116001811461048b575f8415610479578287015190505b6104838582610408565b8655506104ea565b601f1984166104998661027a565b5f5b828110156104c05784890151825560018201915060208501945060208101905061049b565b868310156104dd57848901516104d9601f8916826103ec565b8355505b6001600288020188555050505b505050505050565b5f73ffffffffffffffffffffffffffffffffffffffff82169050919050565b5f61051b826104f2565b9050919050565b61052b81610511565b82525050565b5f6020820190506105445f830184610522565b92915050565b612a1d806105575f395ff3fe608060405234801561000f575f5ffd5b5060043610610135575f3560e01c8063842392c2116100b6578063b88d4fde1161007a578063b88d4fde1461034b578063c87b56dd14610367578063cf456ae714610397578063d0def521146103b3578063e985e9c5146103cf578063f2fde38b146103ff57610135565b8063842392c2146102935780638da5cb5b146102c357806395d89b41146102e1578063a22cb465146102ff578063aa2fe91b1461031b57610135565b806342842e0e116100fd57806342842e0e146101ef5780636352211e1461020b57806370a082311461023b578063715018a61461026b57806375794a3c1461027557610135565b806301ffc9a71461013957806306fdde0314610169578063081812fc14610187578063095ea7b3146101b757806323b872dd146101d3575b5f5ffd5b610153600480360381019061014e9190611db5565b61041b565b6040516101609190611dfa565b60405180910390f35b61017161047b565b60405161017e9190611e83565b60405180910390f35b6101a1600480360381019061019c9190611ed6565b61050a565b6040516101ae9190611f40565b60405180910390f35b6101d160048036038101906101cc9190611f83565b610525565b005b6101ed60048036038101906101e89190611fc1565b61053b565b005b61020960048036038101906102049190611fc1565b61063a565b005b61022560048036038101906102209190611ed6565b610659565b6040516102329190611f40565b60405180910390f35b61025560048036038101906102509190612011565b61066a565b604051610262919061204b565b60405180910390f35b610273610720565b005b61027d610733565b60405161028a919061204b565b60405180910390f35b6102ad60048036038101906102a89190612011565b61073c565b6040516102ba9190611dfa565b60405180910390f35b6102cb61078e565b6040516102d89190611f40565b60405180910390f35b6102e96107b6565b6040516102f69190611e83565b60405180910390f35b6103196004803603810190610314919061208e565b610846565b005b61033560048036038101906103309190612011565b61085c565b6040516103429190611dfa565b60405180910390f35b610365600480360381019061036091906121f8565b610879565b005b610381600480360381019061037c9190611ed6565b61089e565b60405161038e9190611e83565b60405180910390f35b6103b160048036038101906103ac919061208e565b6109a9565b005b6103cd60048036038101906103c89190612316565b610a57565b005b6103e960048036038101906103e49190612370565b610c12565b6040516103f69190611dfa565b60405180910390f35b61041960048036038101906104149190612011565b610ca0565b005b5f634906490660e01b7bffffffffffffffffffffffffffffffffffffffffffffffffffffffff1916827bffffffffffffffffffffffffffffffffffffffffffffffffffffffff19161480610474575061047382610d24565b5b9050919050565b60605f8054610489906123db565b80601f01602080910402602001604051908101604052809291908181526020018280546104b5906123db565b80156105005780601f106104d757610100808354040283529160200191610500565b820191905f5260205f20905b8154815290600101906020018083116104e357829003601f168201915b5050505050905090565b5f61051482610e05565b5061051e82610e8b565b9050919050565b6105378282610532610ec4565b610ecb565b5050565b5f73ffffffffffffffffffffffffffffffffffffffff168273ffffffffffffffffffffffffffffffffffffffff16036105ab575f6040517f64a0ae920000000000000000000000000000000000000000000000000000000081526004016105a29190611f40565b60405180910390fd5b5f6105be83836105b9610ec4565b610edd565b90508373ffffffffffffffffffffffffffffffffffffffff168173ffffffffffffffffffffffffffffffffffffffff1614610634578382826040517f64283d7b00000000000000000000000000000000000000000000000000000000815260040161062b9392919061240b565b60405180910390fd5b50505050565b61065483838360405180602001604052805f815250610879565b505050565b5f61066382610e05565b9050919050565b5f5f73ffffffffffffffffffffffffffffffffffffffff168273ffffffffffffffffffffffffffffffffffffffff16036106db575f6040517f89c62b640000000000000000000000000000000000000000000000000000000081526004016106d29190611f40565b60405180910390fd5b60035f8373ffffffffffffffffffffffffffffffffffffffff1673ffffffffffffffffffffffffffffffffffffffff1681526020019081526020015f20549050919050565b6107286110e8565b6107315f61116f565b565b5f600854905090565b5f60095f8373ffffffffffffffffffffffffffffffffffffffff1673ffffffffffffffffffffffffffffffffffffffff1681526020019081526020015f205f9054906101000a900460ff169050919050565b5f60075f9054906101000a900473ffffffffffffffffffffffffffffffffffffffff16905090565b6060600180546107c5906123db565b80601f01602080910402602001604051908101604052809291908181526020018280546107f1906123db565b801561083c5780601f106108135761010080835404028352916020019161083c565b820191905f5260205f20905b81548152906001019060200180831161081f57829003601f168201915b5050505050905090565b610858610851610ec4565b8383611232565b5050565b6009602052805f5260405f205f915054906101000a900460ff1681565b61088484848461053b565b61089861088f610ec4565b8585858561139b565b50505050565b60606108a982610e05565b505f60065f8481526020019081526020015f2080546108c7906123db565b80601f01602080910402602001604051908101604052809291908181526020018280546108f3906123db565b801561093e5780601f106109155761010080835404028352916020019161093e565b820191905f5260205f20905b81548152906001019060200180831161092157829003601f168201915b505050505090505f61094e611547565b90505f8151036109625781925050506109a4565b5f8251111561099657808260405160200161097e92919061247a565b604051602081830303815290604052925050506109a4565b61099f8461155d565b925050505b919050565b6109b16110e8565b8060095f8473ffffffffffffffffffffffffffffffffffffffff1673ffffffffffffffffffffffffffffffffffffffff1681526020019081526020015f205f6101000a81548160ff0219169083151502179055508173ffffffffffffffffffffffffffffffffffffffff167f3042b80e435ae46c334b2cfec51a66d64c9a8a8af4cd0c279a124c35a09e91dd82604051610a4b9190611dfa565b60405180910390a25050565b60095f3373ffffffffffffffffffffffffffffffffffffffff1673ffffffffffffffffffffffffffffffffffffffff1681526020019081526020015f205f9054906101000a900460ff16610ae0576040517f08c379a0000000000000000000000000000000000000000000000000000000008152600401610ad7906124e7565b60405180910390fd5b5f73ffffffffffffffffffffffffffffffffffffffff168273ffffffffffffffffffffffffffffffffffffffff1603610b4e576040517f08c379a0000000000000000000000000000000000000000000000000000000008152600401610b459061254f565b60405180910390fd5b5f815111610b91576040517f08c379a0000000000000000000000000000000000000000000000000000000008152600401610b88906125b7565b60405180910390fd5b5f60085f815480929190610ba490612602565b919050559050610bb483826115c3565b610bbe81836115e0565b808373ffffffffffffffffffffffffffffffffffffffff167fd35bb95e09c04b219e35047ce7b7b300e3384264ef84a40456943dbc0fc17c1484604051610c059190611e83565b60405180910390a3505050565b5f60055f8473ffffffffffffffffffffffffffffffffffffffff1673ffffffffffffffffffffffffffffffffffffffff1681526020019081526020015f205f8373ffffffffffffffffffffffffffffffffffffffff1673ffffffffffffffffffffffffffffffffffffffff1681526020019081526020015f205f9054906101000a900460ff16905092915050565b610ca86110e8565b5f73ffffffffffffffffffffffffffffffffffffffff168173ffffffffffffffffffffffffffffffffffffffff1603610d18575f6040517f1e4fbdf7000000000000000000000000000000000000000000000000000000008152600401610d0f9190611f40565b60405180910390fd5b610d218161116f565b50565b5f7f80ac58cd000000000000000000000000000000000000000000000000000000007bffffffffffffffffffffffffffffffffffffffffffffffffffffffff1916827bffffffffffffffffffffffffffffffffffffffffffffffffffffffff19161480610dee57507f5b5e139f000000000000000000000000000000000000000000000000000000007bffffffffffffffffffffffffffffffffffffffffffffffffffffffff1916827bffffffffffffffffffffffffffffffffffffffffffffffffffffffff1916145b80610dfe5750610dfd8261163a565b5b9050919050565b5f5f610e10836116a3565b90505f73ffffffffffffffffffffffffffffffffffffffff168173ffffffffffffffffffffffffffffffffffffffff1603610e8257826040517f7e273289000000000000000000000000000000000000000000000000000000008152600401610e79919061204b565b60405180910390fd5b80915050919050565b5f60045f8381526020019081526020015f205f9054906101000a900473ffffffffffffffffffffffffffffffffffffffff169050919050565b5f33905090565b610ed883838360016116dc565b505050565b5f5f610ee8846116a3565b90505f73ffffffffffffffffffffffffffffffffffffffff168373ffffffffffffffffffffffffffffffffffffffff1614610f2957610f2881848661189b565b5b5f73ffffffffffffffffffffffffffffffffffffffff168173ffffffffffffffffffffffffffffffffffffffff1614610fb457610f685f855f5f6116dc565b600160035f8373ffffffffffffffffffffffffffffffffffffffff1673ffffffffffffffffffffffffffffffffffffffff1681526020019081526020015f205f82825403925050819055505b5f73ffffffffffffffffffffffffffffffffffffffff168573ffffffffffffffffffffffffffffffffffffffff161461103357600160035f8773ffffffffffffffffffffffffffffffffffffffff1673ffffffffffffffffffffffffffffffffffffffff1681526020019081526020015f205f82825401925050819055505b8460025f8681526020019081526020015f205f6101000a81548173ffffffffffffffffffffffffffffffffffffffff021916908373ffffffffffffffffffffffffffffffffffffffff160217905550838573ffffffffffffffffffffffffffffffffffffffff168273ffffffffffffffffffffffffffffffffffffffff167fddf252ad1be2c89b69c2b068fc378daa952ba7f163c4a11628f55a4df523b3ef60405160405180910390a4809150509392505050565b6110f0610ec4565b73ffffffffffffffffffffffffffffffffffffffff1661110e61078e565b73ffffffffffffffffffffffffffffffffffffffff161461116d57611131610ec4565b6040517f118cdaa70000000000000000000000000000000000000000000000000000000081526004016111649190611f40565b60405180910390fd5b565b5f60075f9054906101000a900473ffffffffffffffffffffffffffffffffffffffff1690508160075f6101000a81548173ffffffffffffffffffffffffffffffffffffffff021916908373ffffffffffffffffffffffffffffffffffffffff1602179055508173ffffffffffffffffffffffffffffffffffffffff168173ffffffffffffffffffffffffffffffffffffffff167f8be0079c531659141344cd1fd0a4f28419497f9722a3daafe3b4186f6b6457e060405160405180910390a35050565b5f73ffffffffffffffffffffffffffffffffffffffff168273ffffffffffffffffffffffffffffffffffffffff16036112a257816040517f5b08ba180000000000000000000000000000000000000000000000000000000081526004016112999190611f40565b60405180910390fd5b8060055f8573ffffffffffffffffffffffffffffffffffffffff1673ffffffffffffffffffffffffffffffffffffffff1681526020019081526020015f205f8473ffffffffffffffffffffffffffffffffffffffff1673ffffffffffffffffffffffffffffffffffffffff1681526020019081526020015f205f6101000a81548160ff0219169083151502179055508173ffffffffffffffffffffffffffffffffffffffff168373ffffffffffffffffffffffffffffffffffffffff167f17307eab39ab6107e8899845ad3d59bd9653f200f220920489ca2b5937696c318360405161138e9190611dfa565b60405180910390a3505050565b5f8373ffffffffffffffffffffffffffffffffffffffff163b1115611540578273ffffffffffffffffffffffffffffffffffffffff1663150b7a02868685856040518563ffffffff1660e01b81526004016113f9949392919061269b565b6020604051808303815f875af192505050801561143457506040513d601f19601f8201168201806040525081019061143191906126f9565b60015b6114b5573d805f8114611462576040519150601f19603f3d011682016040523d82523d5f602084013e611467565b606091505b505f8151036114ad57836040517f64a0ae920000000000000000000000000000000000000000000000000000000081526004016114a49190611f40565b60405180910390fd5b805160208201fd5b63150b7a0260e01b7bffffffffffffffffffffffffffffffffffffffffffffffffffffffff1916817bffffffffffffffffffffffffffffffffffffffffffffffffffffffff19161461153e57836040517f64a0ae920000000000000000000000000000000000000000000000000000000081526004016115359190611f40565b60405180910390fd5b505b5050505050565b606060405180602001604052805f815250905090565b606061156882610e05565b505f611572611547565b90505f8151116115905760405180602001604052805f8152506115bb565b8061159a8461195e565b6040516020016115ab92919061247a565b6040516020818303038152906040525b915050919050565b6115dc828260405180602001604052805f815250611a28565b5050565b8060065f8481526020019081526020015f2090816115fe91906128c4565b507ff8e1a15aba9398e019f0b49df1a4fde98ee17ae345cb5f6b5e2c27f5033e8ce78260405161162e919061204b565b60405180910390a15050565b5f7f01ffc9a7000000000000000000000000000000000000000000000000000000007bffffffffffffffffffffffffffffffffffffffffffffffffffffffff1916827bffffffffffffffffffffffffffffffffffffffffffffffffffffffff1916149050919050565b5f60025f8381526020019081526020015f205f9054906101000a900473ffffffffffffffffffffffffffffffffffffffff169050919050565b808061171457505f73ffffffffffffffffffffffffffffffffffffffff168273ffffffffffffffffffffffffffffffffffffffff1614155b15611846575f61172384610e05565b90505f73ffffffffffffffffffffffffffffffffffffffff168373ffffffffffffffffffffffffffffffffffffffff161415801561178d57508273ffffffffffffffffffffffffffffffffffffffff168173ffffffffffffffffffffffffffffffffffffffff1614155b80156117a0575061179e8184610c12565b155b156117e257826040517fa9fbf51f0000000000000000000000000000000000000000000000000000000081526004016117d99190611f40565b60405180910390fd5b811561184457838573ffffffffffffffffffffffffffffffffffffffff168273ffffffffffffffffffffffffffffffffffffffff167f8c5be1e5ebec7d5bd14f71427d1e84f3dd0314c0f7b2291e5b200ac8c7c3b92560405160405180910390a45b505b8360045f8581526020019081526020015f205f6101000a81548173ffffffffffffffffffffffffffffffffffffffff021916908373ffffffffffffffffffffffffffffffffffffffff16021790555050505050565b6118a6838383611a4b565b611959575f73ffffffffffffffffffffffffffffffffffffffff168373ffffffffffffffffffffffffffffffffffffffff160361191a57806040517f7e273289000000000000000000000000000000000000000000000000000000008152600401611911919061204b565b60405180910390fd5b81816040517f177e802f000000000000000000000000000000000000000000000000000000008152600401611950929190612993565b60405180910390fd5b505050565b60605f600161196c84611b0b565b0190505f8167ffffffffffffffff81111561198a576119896120d4565b5b6040519080825280601f01601f1916602001820160405280156119bc5781602001600182028036833780820191505090505b5090505f82602083010190505b600115611a1d578080600190039150507f3031323334353637383961626364656600000000000000000000000000000000600a86061a8153600a8581611a1257611a116129ba565b5b0494505f85036119c9575b819350505050919050565b611a328383611c5c565b611a46611a3d610ec4565b5f85858561139b565b505050565b5f5f73ffffffffffffffffffffffffffffffffffffffff168373ffffffffffffffffffffffffffffffffffffffff1614158015611b0257508273ffffffffffffffffffffffffffffffffffffffff168473ffffffffffffffffffffffffffffffffffffffff161480611ac35750611ac28484610c12565b5b80611b0157508273ffffffffffffffffffffffffffffffffffffffff16611ae983610e8b565b73ffffffffffffffffffffffffffffffffffffffff16145b5b90509392505050565b5f5f5f90507a184f03e93ff9f4daa797ed6e38ed64bf6a1f0100000000000000008310611b67577a184f03e93ff9f4daa797ed6e38ed64bf6a1f0100000000000000008381611b5d57611b5c6129ba565b5b0492506040810190505b6d04ee2d6d415b85acef81000000008310611ba4576d04ee2d6d415b85acef81000000008381611b9a57611b996129ba565b5b0492506020810190505b662386f26fc100008310611bd357662386f26fc100008381611bc957611bc86129ba565b5b0492506010810190505b6305f5e1008310611bfc576305f5e1008381611bf257611bf16129ba565b5b0492506008810190505b6127108310611c21576127108381611c1757611c166129ba565b5b0492506004810190505b60648310611c445760648381611c3a57611c396129ba565b5b0492506002810190505b600a8310611c53576001810190505b80915050919050565b5f73ffffffffffffffffffffffffffffffffffffffff168273ffffffffffffffffffffffffffffffffffffffff1603611ccc575f6040517f64a0ae92000000000000000000000000000000000000000000000000000000008152600401611cc39190611f40565b60405180910390fd5b5f611cd883835f610edd565b90505f73ffffffffffffffffffffffffffffffffffffffff168173ffffffffffffffffffffffffffffffffffffffff1614611d4a575f6040517f73c6ac6e000000000000000000000000000000000000000000000000000000008152600401611d419190611f40565b60405180910390fd5b505050565b5f604051905090565b5f5ffd5b5f5ffd5b5f7fffffffff0000000000000000000000000000000000000000000000000000000082169050919050565b611d9481611d60565b8114611d9e575f5ffd5b50565b5f81359050611daf81611d8b565b92915050565b5f60208284031215611dca57611dc9611d58565b5b5f611dd784828501611da1565b91505092915050565b5f8115159050919050565b611df481611de0565b82525050565b5f602082019050611e0d5f830184611deb565b92915050565b5f81519050919050565b5f82825260208201905092915050565b8281835e5f83830152505050565b5f601f19601f8301169050919050565b5f611e5582611e13565b611e5f8185611e1d565b9350611e6f818560208601611e2d565b611e7881611e3b565b840191505092915050565b5f6020820190508181035f830152611e9b8184611e4b565b905092915050565b5f819050919050565b611eb581611ea3565b8114611ebf575f5ffd5b50565b5f81359050611ed081611eac565b92915050565b5f60208284031215611eeb57611eea611d58565b5b5f611ef884828501611ec2565b91505092915050565b5f73ffffffffffffffffffffffffffffffffffffffff82169050919050565b5f611f2a82611f01565b9050919050565b611f3a81611f20565b82525050565b5f602082019050611f535f830184611f31565b92915050565b611f6281611f20565b8114611f6c575f5ffd5b50565b5f81359050611f7d81611f59565b92915050565b5f5f60408385031215611f9957611f98611d58565b5b5f611fa685828601611f6f565b9250506020611fb785828601611ec2565b9150509250929050565b5f5f5f60608486031215611fd857611fd7611d58565b5b5f611fe586828701611f6f565b9350506020611ff686828701611f6f565b925050604061200786828701611ec2565b9150509250925092565b5f6020828403121561202657612025611d58565b5b5f61203384828501611f6f565b91505092915050565b61204581611ea3565b82525050565b5f60208201905061205e5f83018461203c565b92915050565b61206d81611de0565b8114612077575f5ffd5b50565b5f8135905061208881612064565b92915050565b5f5f604083850312156120a4576120a3611d58565b5b5f6120b185828601611f6f565b92505060206120c28582860161207a565b9150509250929050565b5f5ffd5b5f5ffd5b7f4e487b71000000000000000000000000000000000000000000000000000000005f52604160045260245ffd5b61210a82611e3b565b810181811067ffffffffffffffff82111715612129576121286120d4565b5b80604052505050565b5f61213b611d4f565b90506121478282612101565b919050565b5f67ffffffffffffffff821115612166576121656120d4565b5b61216f82611e3b565b9050602081019050919050565b828183375f83830152505050565b5f61219c6121978461214c565b612132565b9050828152602081018484840111156121b8576121b76120d0565b5b6121c384828561217c565b509392505050565b5f82601f8301126121df576121de6120cc565b5b81356121ef84826020860161218a565b91505092915050565b5f5f5f5f608085870312156122105761220f611d58565b5b5f61221d87828801611f6f565b945050602061222e87828801611f6f565b935050604061223f87828801611ec2565b925050606085013567ffffffffffffffff8111156122605761225f611d5c565b5b61226c878288016121cb565b91505092959194509250565b5f67ffffffffffffffff821115612292576122916120d4565b5b61229b82611e3b565b9050602081019050919050565b5f6122ba6122b584612278565b612132565b9050828152602081018484840111156122d6576122d56120d0565b5b6122e184828561217c565b509392505050565b5f82601f8301126122fd576122fc6120cc565b5b813561230d8482602086016122a8565b91505092915050565b5f5f6040838503121561232c5761232b611d58565b5b5f61233985828601611f6f565b925050602083013567ffffffffffffffff81111561235a57612359611d5c565b5b612366858286016122e9565b9150509250929050565b5f5f6040838503121561238657612385611d58565b5b5f61239385828601611f6f565b92505060206123a485828601611f6f565b9150509250929050565b7f4e487b71000000000000000000000000000000000000000000000000000000005f52602260045260245ffd5b5f60028204905060018216806123f257607f821691505b602082108103612405576124046123ae565b5b50919050565b5f60608201905061241e5f830186611f31565b61242b602083018561203c565b6124386040830184611f31565b949350505050565b5f81905092915050565b5f61245482611e13565b61245e8185612440565b935061246e818560208601611e2d565b80840191505092915050565b5f612485828561244a565b9150612491828461244a565b91508190509392505050565b7f4e6f7420617574686f72697a656420746f206d696e74000000000000000000005f82015250565b5f6124d1601683611e1d565b91506124dc8261249d565b602082019050919050565b5f6020820190508181035f8301526124fe816124c5565b9050919050565b7f43616e6e6f74206d696e7420746f207a65726f206164647265737300000000005f82015250565b5f612539601b83611e1d565b915061254482612505565b602082019050919050565b5f6020820190508181035f8301526125668161252d565b9050919050565b7f5552492063616e6e6f7420626520656d707479000000000000000000000000005f82015250565b5f6125a1601383611e1d565b91506125ac8261256d565b602082019050919050565b5f6020820190508181035f8301526125ce81612595565b9050919050565b7f4e487b71000000000000000000000000000000000000000000000000000000005f52601160045260245ffd5b5f61260c82611ea3565b91507fffffffffffffffffffffffffffffffffffffffffffffffffffffffffffffffff820361263e5761263d6125d5565b5b600182019050919050565b5f81519050919050565b5f82825260208201905092915050565b5f61266d82612649565b6126778185612653565b9350612687818560208601611e2d565b61269081611e3b565b840191505092915050565b5f6080820190506126ae5f830187611f31565b6126bb6020830186611f31565b6126c8604083018561203c565b81810360608301526126da8184612663565b905095945050505050565b5f815190506126f381611d8b565b92915050565b5f6020828403121561270e5761270d611d58565b5b5f61271b848285016126e5565b91505092915050565b5f819050815f5260205f209050919050565b5f6020601f8301049050919050565b5f82821b905092915050565b5f600883026127807fffffffffffffffffffffffffffffffffffffffffffffffffffffffffffffffff82612745565b61278a8683612745565b95508019841693508086168417925050509392505050565b5f819050919050565b5f6127c56127c06127bb84611ea3565b6127a2565b611ea3565b9050919050565b5f819050919050565b6127de836127ab565b6127f26127ea826127cc565b848454612751565b825550505050565b5f5f905090565b6128096127fa565b6128148184846127d5565b505050565b5b818110156128375761282c5f82612801565b60018101905061281a565b5050565b601f82111561287c5761284d81612724565b61285684612736565b81016020851015612865578190505b61287961287185612736565b830182612819565b50505b505050565b5f82821c905092915050565b5f61289c5f1984600802612881565b1980831691505092915050565b5f6128b4838361288d565b9150826002028217905092915050565b6128cd82611e13565b67ffffffffffffffff8111156128e6576128e56120d4565b5b6128f082546123db565b6128fb82828561283b565b5f60209050601f83116001811461292c575f841561291a578287015190505b61292485826128a9565b86555061298b565b601f19841661293a86612724565b5f5b828110156129615784890151825560018201915060208501945060208101905061293c565b8683101561297e578489015161297a601f89168261288d565b8355505b6001600288020188555050505b505050505050565b5f6040820190506129a65f830185611f31565b6129b3602083018461203c565b9392505050565b7f4e487b71000000000000000000000000000000000000000000000000000000005f52601260045260245ffdfea2646970667358221220235d1873216e2f87ad2f7a5114e934560373d58a765b99a5fcdd5a3d8a36064664736f6c634300081c0033",
  "linkReferences": {},
  "deployedLinkReferences": {},
  "immutableReferences": {},
  "inputSourceName": "project/contracts/NaranjaXBrandNFT.sol",
  "buildInfoId": "solc-0_8_28-c078992cd23c5f9acbe4e5eca1ab5165d17ee5c7"
}